:100000000C94B5000C94D2000C94D2000C94D20045
:100010000C94D2000C94D2000C94D2000C94D20018
:100020000C94D2000C94D2000C94D2000C94D20008
:100030000C94D2000C94D2000C94C2040C94D20004
:100040000C94D2000C94D2000C94D2000C94D200E8
:100050000C94D2000C94D2000C94D2000C94D200D8
:100060000C94D2000C94D2006E616E00696E660032
:1000700000407A10F35A00A0724E18090010A5D45F
:10008000E80000E87648170000E40B54020000CABC
:100090009A3B000000E1F505000080969800000002
:1000A00040420F000000A086010000001027000061
:1000B0000000E803000000006400000000000A00E7
:1000C000000000000100000000002C76D888DC67EA
:1000D0004F0823DFC1DFAE59E1B1B796E5E3E45342
:1000E000C63AE651997696E8E6C28426EB898C9B5F
:1000F00062ED407C6FFCEFBC9C9F40F2BAA56FA5FF
:10010000F490055A2AF75C936B6CF9676DC11BFC80
:10011000E0E40D47FEF520E6B500D0ED902E03009B
:10012000943577050080841E080000204E0A0000E8
:1001300000C80C333333330F986E12831141EF8DA7
:100140002114893BE65516CFFEE6DB18D1844B38E7
:100150001BF77C1D901DA4BBE424203284725E2218
:100160008100C9F124ECA1E53D2711241FBECFEF8A
:10017000D8E0DEBFCDBF11E0A0E0B1E0ECE1F7E1F7
:1001800002C005900D92A233B107D9F721E0A2E396
:10019000B1E001C01D92AF3BB207E1F70E94EE054E
:1001A0000C948C0B0C940000AFE0B0E0EAEDF0E0B2
:1001B0000C9456086C011B015A01FC01178216822F
:1001C000838181FF48C39E012F5F3F4F4901F601A4
:1001D0009381F10193FD859193FF81911F01882304
:1001E00009F4E7C2853239F493FD859193FF81913B
:1001F0001F01853239F4B60190E00E949B0A350157
:100200005301E5CFF12C512C00E0003238F48B3251
:1002100009F190F48032F9F0833209F107FD34C01E
:1002200020ED280F2A3020F506FF1BC0FAE0FF9EC4
:10023000200D1124F22E05C08D3279F0803371F734
:100240000160F10193FD859193FF81911F0181115F
:10025000DCCF1AC002600460F4CF0860F2CF006106
:10026000F0CF3AE0539E200D1124522E0062E9CFC8
:100270008E3221F406FD9DC20064E3CF8C3611F46A
:100280000068DFCF8836E9F29BEB980F933008F0D7
:100290005FC00061805E06FD02C046E0F42E102FB4
:1002A0001F73853609F05BC0106417FF61C08F2D86
:1002B0009BE39F1508F48BE344244394480E27E006
:1002C0003501F4E06F0E711CF5016081718182814E
:1002D0009381042DA4010E94A4095C01F981FC878B
:1002E000F0FF03C00DE2F3FF07C00BE211FD04C0F5
:1002F000012F047012FD00E22C852C70E22E09F40F
:1003000057C00111ABC2F3E0E12CF515A0F483E076
:10031000E52CE81A13FD08C0B60180E290E00E94C7
:100320009B0AEA94E110F8CF002329F0B601802F50
:1003300090E00E949B0A3C8528E6A22E20E0B22E87
:1003400033FD04C09CE6A92E90E0B92E107122C0A6
:100350009BE9980F933008F033C10F7E9CCF86360F
:1003600011F41068A2CFFF2009F49FCFFA949DCF1B
:10037000E7E02F2DEF1518F427E037E0F32E412C9E
:100380009FCF11118052B60190E00E949B0A8FEF1F
:10039000A81AB80AF50184918111F3CFEE2009F46F
:1003A0002FCFB60180E290E00E949B0AEA94F6CF3C
:1003B00017FF6FC04A0CFC85F4FF04C08A818133AB
:1003C00009F44A9414140CF086C028E0241510F4A3
:1003D00088E0482E85E090E017FF06C0C501B7FE13
:1003E00002C090E080E0019601110196FF2031F0FB
:1003F0002F2D30E02F5F3F4F820F931F58161906A5
:1004000019F014F0E52CE81A812F897011F4E1102D
:1004100067C0002329F0B601802F90E00E949B0A5C
:1004200013FD02C0E11063C017FF7CC08501B7FE59
:1004300002C010E000E0C501841991092C016F2D64
:1004400070E0EE27FF27E61BF70BFF87EE870F3FD5
:10045000100729F4B6018EE290E00E949B0AA016D4
:10046000B1060CF44BC0401651060CF047C0F50124
:10047000E01BF10BE80DF91D8181015011092E855A
:100480003F8502171307E4F1B60190E00E949B0A32
:10049000DECF16FD9FCFEF2DF0E0EA15FB0534F01F
:1004A0003CEFA3163FEFB3060CF010683296E80D50
:1004B000F91D01C0FA94FF2019F082918033D1F325
:1004C00017FF88CF442443944F0CFA141B0431F0D7
:1004D0002CF0FA187FCF442443947CCFF12C7ACFB0
:1004E000B60180E290E00E949B0AEA9490CFB601A8
:1004F00080E390E00E949B0AEA9494CF80E3BDCF12
:10050000A016B10641F49A81963350F4953319F44C
:100510003C8534FF05C0B60190E00E949B0A3ECFA7
:1005200081E3F9CF8A81813319F09C859F7E9C8776
:10053000B60190E00E949B0AFF20A9F0B6018EE26E
:1005400090E00E949B0AF394F394E2E001E00E0F26
:10055000E80DF92DF11D8081B60190E00E949B0A03
:10056000E02F0F11F3CF85E690E014FF02C085E481
:1005700090E0B6010E949B0AB7FC06C0A114B1042A
:10058000C1F4EC85E4FF15C0B194A194B1088DE2EB
:10059000B60190E00E949B0A80E32AE0A216B10413
:1005A00054F4B60190E00E949B0AB601C501C096C2
:1005B000B4CF8BE2EDCF8F5FFAE0AF1AB108EDCF89
:1005C0008336C9F0833771F1833509F05BC035019B
:1005D000F2E06F0E711CF501A080B1806F2D70E00C
:1005E00006FD02C06FEF7FEFC5010E94850A9D875F
:1005F0008C8700680DC0350132E0630E711CF50177
:100600008081898321E030E03D872C8754010F777A
:1006100003FD06C02C853D855216130609F0A8F48B
:10062000E52C2BC0350132E0630E711CF501A08072
:10063000B1806F2D70E006FD02C06FEF7FEFC50146
:100640000E94900A9D878C87E2CFB60180E290E0FD
:100650000E949B0A5A94DECFF50107FD859107FFA2
:1006600081915F01B60190E00E949B0AE110EA943B
:100670008C859D8501979D878C87EC85FD85EF2B6B
:1006800059F78CCE843619F0893609F074C03501DB
:1006900007FF66C0F4E06F0E711CF5016081718187
:1006A00082819381102F1F7697FF08C090958095C7
:1006B000709561957F4F8F4F9F4F10682AE030E013
:1006C000A4010E94EE0AA82EA818BA2C012F16FF2A
:1006D0000AC00E7FAF1438F414FF04C012FD02C02C
:1006E000012F0E7EBF2C04FF8EC0FE01EA0DF11D0E
:1006F0008081803309F080C0097EF02FF870EF2EE2
:1007000003FD90C000FF8AC0FA2CB51410F4F50C5C
:10071000FB1804FF8DC0B60180E390E00E949B0AA5
:1007200002FF09C088E790E001FF02C088E590E081
:10073000B6010E949B0AAF1408F486C0AA940A2D41
:1007400010E00F5F1F4F080D191DF80182918F01F6
:10075000B60190E00E949B0A80169106B1F71ECE6A
:10076000F2E06F0E711CF50160817181072E000CA3
:10077000880B990B97CF102F8537A9F41F7E2AE09D
:1007800030E0350117FF2FC0F4E06F0E711CF5014A
:100790006081718182819381A4010E94EE0AA82E5A
:1007A000A8181F7792CF197F8F36D1F048F488357B
:1007B00091F0F601868197812F96E2E10C94720800
:1007C000803739F08837A9F714FD146020E130E054
:1007D000D8CF1061F9CF04FD166020E132E0D1CF0F
:1007E00028E030E0CECFF2E06F0E711CF5016081A1
:1007F000718190E080E0D0CF02FD02C0B3947DCF44
:10080000B394B3947ACF802F867809F476CFF6CF5D
:10081000B60180E290E00E949B0AB394B514C0F345
:10082000E12C77CFE52CEB18B51408F472CFF8CF94
:10083000802F867809F47FCF8BE201FF80E207FDED
:100840008DE2B60190E075CFB60180E390E00E94A2
:100850009B0AFA9470CF8FEF9FEFAECF24E0E12C8C
:10086000251508F063CD84E053CDCF93DF93FC01D1
:100870002081222369F0DC011196E0ECF0E0C6EC67
:10088000D0E0908195FFFDCF28832D912111F9CFE4
:10089000DF91CF910895CF93DF939C01E0ECF0E0DE
:1008A000C6ECD0E0D90190819923ECF788818C9334
:1008B0002F5F3F4F8A30B1F711961C92DF91CF9195
:1008C00008950F931F93CF93DF93CDB7DEB7609753
:1008D0000FB6F894DEBF0FBECDBF8C0180E091E073
:1008E0000E943504CE0101960E944B044AE050E07C
:1008F00070E060E0CE0101960E948D08F8016083EF
:100900008AE091E00E943504CE0101960E944B04DA
:100910004AE050E070E060E0CE0101960E948D0850
:10092000F801618312821482138260960FB6F894E4
:10093000DEBF0FBECDBFDF91CF911F910F91089504
:10094000FC01838194819C01265F3F4F3483238384
:10095000283E3340B0F022812F5F22838E5D93408A
:10096000948383832C3368F081818F5F818312822B
:100970008C3338F080818F5F80831182883108F05A
:10098000108208951F920F920FB60F9211242F9389
:100990003F934F935F936F937F938F939F93AF9307
:1009A000BF93EF93FF938091B7018F5F8093B7015F
:1009B0008091B7018A3028F081E08093B6011092CF
:1009C000B70188EB91E00E94A004FF91EF91BF91E5
:1009D000AF919F918F917F916F915F914F913F91D7
:1009E0002F910F900FBE0F901F901895FC013F9311
:1009F0002F937F936F935F934F9323813481369529
:100A0000279536952795ABE7B4E10E944708969560
:100A100087959F938F9382811F928F9381811F92DD
:100A20008F9380811F928F9386E191E09F938F93A4
:100A300086E391E09F938F930E94CB0A86E391E037
:100A40000E9435048DB79EB742960FB6F8949EBFAC
:100A50000FBE8DBF0895CF93DF93EC01E1E8F0E086
:100A6000808180648083B59A5F9888E18A95F1F7E8
:100A700000C05F9A81E38A95F1F700005F98B59B0B
:100A8000FECF8091840090918500909335018093F2
:100A90003401B59AE1E8F0E080818F7B8083B59BDB
:100AA000FECFB59AB599FECF8091840090918500D4
:100AB00020913401309135018217930738F1821B60
:100AC000930B9093330180933201609132017091C6
:100AD000330190E080E00E94230724EB32EA41E9F1
:100AE00053E30E94B60720E03CEF45E057E40E9444
:100AF000B60720E030E040E05FE30E94B60768837D
:100B000079838A839B83DF91CF910895821B930B16
:100B10009093330180933201D8CFCF92DF92EF923E
:100B2000FF920F931F93CF93DF93CDB7DEB7289734
:100B30000FB6F894DEBF0FBECDBF8C01CE0101967B
:100B40000E942B0520E030E040E252E469817A8186
:100B50008B819C810E94B107181684F480E028964E
:100B60000FB6F894DEBF0FBECDBFDF91CF911F91BE
:100B70000F91FF90EF90DF90CF9008958FEF9FE857
:100B80000197F1F700C00000CE0105960E942B05E9
:100B9000CD80DE80EF80F88420E030E040E252E457
:100BA000C701B6010E94B1071816B4F029813A8135
:100BB0004B815C81C701B6010E9444069F772AE001
:100BC00037ED43E25CE30E94B106F8016083718374
:100BD0008283938381E0C3CF80E0C1CFCF93DF9343
:100BE00000D000D0CDB7DEB7E1E6F0E080E880834A
:100BF0001082E1ECF0E08081886180838FE290E0F8
:100C00009093C5008093C40082E084BD95E095BDBB
:100C10009FE897BD80936E00E1E8F0E080818064FA
:100C2000808380818160808380818F778083579AE1
:100C30002098289A88EB91E00E94610478941982A8
:100C40001A821B821C8200E0F12CE12C10C0498129
:100C50005A816B817C81970188EB91E00E94F604B8
:100C60008091B6018823E1F31092B601012FCE01E5
:100C700001960E948D05182F882391F30111E7CF6B
:100C80008FEFE81AF80AE3CF5058BB27AA270E9433
:100C90005C060C9477070E94690738F00E94700781
:100CA00020F039F49F3F19F426F40C9466070EF4F3
:100CB000E095E7FB0C946007E92F0E94880758F342
:100CC000BA17620773078407950720F079F4A6F531
:100CD0000C94AA070EF4E0950B2EBA2FA02D0B0151
:100CE000B90190010C01CA01A0011124FF27591B71
:100CF00099F0593F50F4503E68F11A16F040A22F77
:100D0000232F342F4427585FF3CF469537952795E7
:100D1000A795F0405395C9F77EF41F16BA0B620BE6
:100D2000730B840BBAF09150A1F0FF0FBB1F661F2D
:100D3000771F881FC2F70EC0BA0F621F731F841F70
:100D400048F4879577956795B795F7959E3F08F096
:100D5000B0CF9395880F08F09927EE0F9795879558
:100D600008950E94C5060C9477070E94700758F0FA
:100D70000E94690740F029F45F3F29F00C94600756
:100D800051110C94AB070C9466070E94880768F316
:100D90009923B1F3552391F3951B550BBB27AA2734
:100DA00062177307840738F09F5F5F4F220F331F6E
:100DB000441FAA1FA9F335D00E2E3AF0E0E832D036
:100DC00091505040E695001CCAF72BD0FE2F29D039
:100DD000660F771F881FBB1F261737074807AB070B
:100DE000B0E809F0BB0B802DBF01FF2793585F4F80
:100DF0003AF09E3F510578F00C9460070C94AB07D5
:100E00005F3FE4F3983ED4F3869577956795B79561
:100E1000F7959F5FC9F7880F911D9695879597F96C
:100E20000895E1E0660F771F881FBB1F62177307E5
:100E30008407BA0720F0621B730B840BBA0BEE1FFA
:100E400088F7E0950895E89409C097FB3EF49095E3
:100E50008095709561957F4F8F4F9F4F9923A9F093
:100E6000F92F96E9BB279395F69587957795679522
:100E7000B795F111F8CFFAF4BB0F11F460FF1BC066
:100E80006F5F7F4F8F4F9F4F16C0882311F096E9F9
:100E900011C0772321F09EE8872F762F05C06623A7
:100EA00071F096E8862F70E060E02AF09A95660F60
:100EB000771F881FDAF7880F9695879597F9089519
:100EC00097F99F6780E870E060E008959FEF80ECFD
:100ED000089500240A9416161706180609060895A0
:100EE00000240A9412161306140605060895092E06
:100EF0000394000C11F4882352F0BB0F40F4BF2B75
:100F000011F460FF04C06F5F7F4F8F4F9F4F0895B4
:100F100057FD9058440F551F59F05F3F71F04795AA
:100F2000880F97FB991F61F09F3F79F0879508958F
:100F3000121613061406551FF2CF4695F1DF08C0AE
:100F4000161617061806991FF1CF869571056105CB
:100F500008940895E894BB2766277727CB0197F973
:100F600008950E94230808F48FEF08950E94C9078E
:100F70000C9477070E94690738F00E94700720F0F0
:100F8000952311F00C9460070C94660711240C94BF
:100F9000AB070E94880770F3959FC1F3950F50E04F
:100FA000551F629FF001729FBB27F00DB11D639F1B
:100FB000AA27F00DB11DAA1F649F6627B00DA11DC1
:100FC000661F829F2227B00DA11D621F739FB00D67
:100FD000A11D621F839FA00D611D221F749F3327D7
:100FE000A00D611D231F849F600D211D822F762F70
:100FF0006A2F11249F5750409AF0F1F088234AF04D
:10100000EE0FFF1FBB1F661F771F881F91505040B8
:10101000A9F79E3F510580F00C9460070C94AB0734
:101020005F3FE4F3983ED4F3869577956795B7953F
:10103000F795E7959F5FC1F7FE2B880F911D969559
:10104000879597F90895990F0008550FAA0BE0E8C6
:10105000FEEF16161706E807F907C0F0121613067A
:10106000E407F50798F0621B730B840B950B39F4BA
:101070000A2661F0232B242B252B21F408950A2620
:1010800009F4A140A6958FEF811D811D0895A29FAF
:10109000B001B39FC001A39F700D811D1124911D4C
:1010A000B29F700D811D1124911D08952F923F92C2
:1010B0004F925F926F927F928F929F92AF92BF9268
:1010C000CF92DF92EF92FF920F931F93CF93DF9314
:1010D000CDB7DEB7CA1BDB0B0FB6F894DEBF0FBE71
:1010E000CDBF09942A88398848885F846E847D84BE
:1010F0008C849B84AA84B984C884DF80EE80FD80C0
:101100000C811B81AA81B981CE0FD11D0FB6F89435
:10111000DEBF0FBECDBFED010895B0E0A0E0E3E972
:10112000F8E00C9457085C016B017A0161157105B8
:1011300019F0FB0191838083E114F10451F0C701A0
:101140000297839730F040E030E020E090E072C0FA
:101150005E01E5012196F5011081812F90E00E944A
:101160007C0A892BA9F71D3201F52196F501118121
:1011700001E0E114F10409F4DAC0F0E1EF16F10442
:1011800009F082C0103359F488818F7D883509F0C9
:1011900076C0198122960260F0E1EF2EF12C812CAD
:1011A000912CA12C88E0B82E8CC01B3221F4E501D3
:1011B0002296F501118100E0DCCFEAE0EE16F104A1
:1011C00009F4BBC0F0E1EF16F10409F06DC0E7CF00
:1011D00078E0E72EF12C812C912CA12C60E1B62E29
:1011E00070C03FE9310F3A3128F439EA332E80C01C
:1011F00021E09AC0302F3170C114D10431F0222384
:1012000009F12197F601D183C08327FF21C060E057
:1012100070E080E090E8311104C06FEF7FEF8FEF56
:101220009FE722E230E03093BE012093BD01462FBC
:10123000372F282F642F732F822FCDB7DEB7E1E130
:101240000C94730801FF04C02297F601D183C08378
:10125000332341F090958095709561957F4F8F4F26
:101260009F4FE5CF97FFE3CF82E290E09093BE01DE
:101270008093BD016FEF7FEF8FEF9FE7D8CF10E333
:10128000E114F10409F4A4CF28E0E216F10409F412
:10129000A2CF0CF092CF812C912CA12CE0E4BE2E99
:1012A00082E0E816F10469F060E070E080E090E828
:1012B00097010F2C000C440B550B0E945F0B49014A
:1012C0005A0120E060E070E0CB0127010F2C000CF8
:1012D00066087708FE0150ED352E310E39E03315E2
:1012E00040F43FEB310F3A3108F07BCF49EC342E1C
:1012F000310E3E141F040CF07DCF27FD15C086165D
:101300009706A806B90678F0A30192010E944F0B38
:10131000630D711D811D911D61307105810520E8EE
:10132000920708F465CF2FEF21961081D3CF1033A9
:1013300009F42ACF2AE0E22EF12C9CEC892E982C7D
:10134000A82C9CE0B92EBDCF283008F027E0332729
:10135000DA01990F311D87FD9160009661057105D5
:1013600039F432602E5F3D9330E32A95E1F708951A
:101370009F3F30F080387105610509F03C5F3C5FAC
:101380003D93913008F08068911DDF93CF931F93B8
:101390000F93FF92EF92192F987F9695E92F9695CC
:1013A0009695E90FFF27E653FF4F99273327EE2441
:1013B000FF24A701E70105900894079428F4360F4D
:1013C000E71EF81E491F511D660F771F881F991FC2
:1013D0000694A1F70590079428F4E70EF81E491F1C
:1013E000561FC11D770F881F991F661F0694A1F70E
:1013F0000590079428F4F80E491F561FC71FD11DEA
:10140000880F991F661F771F0694A1F70590079410
:1014100020F4490F561FC71FD81F990F661F771F4B
:10142000881F0694A9F784911095177041F0D695FE
:10143000C79557954795F794E7941A95C1F7E0E754
:10144000F0E068941590159135916591959105900E
:101450007FE27395E118F10A430B560BC90BD009D3
:10146000C0F7E10CF11E431F561FC91FD01D7EF4AB
:10147000703311F48A95E6CFE894015030F0080FEC
:101480000AF40027021708F4202F2395022F7A333D
:1014900028F079E37D932A95E9F710C07D932A958A
:1014A00089F6069497956795379517951794E118DF
:1014B000F10A430B560BC90BD00998F023957E9186
:1014C00073957A3308F070E37C932013B8F77E911C
:1014D00070617D9330F0839571E37D9370E32A957D
:1014E000E1F71124EF90FF900F911F91CF91DF91C1
:1014F000992787FD9095089591110C944C0B80329B
:1015000019F089508550C8F70895FC010590615085
:1015100070400110D8F7809590958E0F9F1F089509
:10152000FC016150704001900110D8F780959095B2
:101530008E0F9F1F08950F931F93CF93DF93182F44
:10154000092FEB018B8181FD09C01FEF0FEF812F68
:10155000902FDF91CF911F910F91089582FF14C0BA
:101560002E813F818C819D81281739073CF4E881C9
:10157000F981CF0101969983888310838E819F81A1
:1015800001969F838E83E3CFE885F985812F0995A6
:10159000892BA1F3DACFAEE0B0E0E1EDFAE00C94F4
:1015A00064080D891E8986E08C831A8309838FEF76
:1015B0009FE79E838D83AE01475E5F4F6F89788D75
:1015C000CE0101960E94D4002F813885020F131F8F
:1015D000F80110822E96E4E00C948008FA01AA2704
:1015E000283051F1203181F1E8946F936E7F6E5F66
:1015F0007F4F8F4F9F4FAF4FB1E03ED0B4E03CD014
:10160000670F781F891F9A1FA11D680F791F8A1FF6
:10161000911DA11D6A0F711D811D911DA11D20D05D
:1016200009F468943F912AE0269F11243019305D17
:101630003193DEF6CF010895462F4770405D419308
:10164000B3E00FD0C9F7F6CF462F4F70405D4A3355
:1016500018F0495D31FD4052419302D0A9F7EACF1D
:10166000B4E0A6959795879577956795BA95C9F74C
:1016700000976105710508959B01AC010A2E06943F
:101680005795479537952795BA95C9F7620F731FF8
:10169000841F951FA01D0895992788270895DB01B1
:1016A0008F939F930E94810BBF91AF91A29F800D5A
:1016B000911DA39F900DB29F900D11240895A1E25A
:1016C0001A2EAA1BBB1BFD010DC0AA1FBB1FEE1FBC
:1016D000FF1FA217B307E407F50720F0A21BB30B07
:1016E000E40BF50B661F771F881F991F1A9469F783
:1016F00060957095809590959B01AC01BD01CF01DF
:1017000008950E944708A59F900DB49F900DA49F37
:0C171000800D911D11240895F894FFCF66
:10171C00486F7572733A200D0A004D696E757465C9
:10172C00733A200D0A0025643A25643A25643A255B
:10173C006420252E316620636D2F73202025750DB6
:02174C000A0091
:00000001FF
